:020000040800F2
:10000000000002206D0A0008E9090008F109000853
:10001000F9090008010A0008090A000800000000A8
:10002000000000000000000000000000110A0008AD
:100030001F0A0008000000002D0A00083B0A000803
:10004000BD0A0008BD0A0008BD0A0008BD0A000874
:10005000BD0A0008BD0A0008BD0A0008BD0A000864
:10006000BD0A0008BD0A0008BD0A0008BD0A000854
:10007000BD0A0008BD0A0008BD0A0008BD0A000844
:10008000BD0A0008BD0A0008BD0A0008BD0A000834
:10009000BD0A0008BD0A0008BD0A0008BD0A000824
:1000A000BD0A0008BD0A0008BD0A0008BD0A000814
:1000B000BD0A0008BD0A0008BD0A0008BD0A000804
:1000C000BD0A0008BD0A0008BD0A0008BD0A0008F4
:1000D000BD0A0008BD0A0008BD0A0008BD0A0008E4
:1000E000BD0A0008BD0A0008BD0A0008BD0A0008D4
:1000F000BD0A0008BD0A0008BD0A0008BD0A0008C4
:10010000BD0A0008BD0A0008BD0A0008BD0A0008B3
:10011000BD0A0008BD0A0008BD0A0008BD0A0008A3
:10012000BD0A0008BD0A0008BD0A0008BD0A000893
:10013000BD0A0008BD0A0008BD0A0008BD0A000883
:10014000BD0A0008BD0A0008BD0A0008BD0A000873
:10015000BD0A0008BD0A0008BD0A0008BD0A000863
:10016000BD0A0008BD0A0008BD0A0008BD0A000853
:10017000BD0A0008BD0A0008BD0A00080000000012
:08018000BD0A0008BD0A0008D9
:1001880010B5054C237833B9044B13B10448AFF3C9
:1001980000800123237010BD0C0000200000000027
:1001A8000430000808B5034B1BB103490348AFF3FB
:1001B800008008BD00000000100000200430000886
:1001C80053B94AB9002908BF00281CBF4FF0FF31B6
:1001D8004FF0FF3000F088B9ADF1080C6DE904CE9E
:1001E80000F006F8DDF804E0DDE9022304B070470A
:1001F8002DE9F047089D8E4604468846002B4AD1D3
:100208008A42174662D9B2FA82F64EB1C6F1200385
:1002180001FA06F820FA03F3B74043EA0808B440A5
:100228004FEA174E1FFA87FCB8FBFEF1230C0EFBB2
:10023800118843EA084301FB0CF29A4209D9FB18DA
:1002480001F1FF3080F0EA809A4240F2E7800239FB
:100258003B449A1AA3B2B2FBFEF00EFB102243EA0B
:10026800024300FB0CFC9C4509D9FB1800F1FF3246
:1002780080F0D6809C4540F2D3803B44023840EA67
:100288000140A3EB0C0300211DB1F3400022C5E996
:100298000032BDE8F0878B4205D90DB1C5E90001F0
:1002A80000210846F5E7B3FA83F1002946D17345E2
:1002B80002D3824200F20581841A6EEB0302012008
:1002C8009046002DE5D0C5E90048E2E7002A00F095
:1002D8009080B2FA82F6002E40F0A4808A1A030CAD
:1002E8004FEA174E80B2BCB20121B2FBFEFC0EFBF6
:1002F8001C2243EA024304FB0CF29A4207D9FB187A
:100308000CF1FF3802D29A4200F2E080C4469B1AF0
:10031800B3FBFEF20EFB123340EA034302FB04F484
:100328009C4207D9FB1802F1FF3002D29C4200F22E
:10033800CA8002461B1B42EA0C40A5E7C1F1200611
:100348008B4022FA06F71F430EFA01F420FA06F34F
:100358002EFA06FE4FEA1749234300FA01F81FFA5E
:1003680087FCBEFBF9F01C0C09FB10EE44EA0E44B6
:1003780000FB0CFEA64502FA01F209D93C1900F16E
:10038800FF3A80F09C80A64540F2998002383C44B0
:10039800A4EB0E041FFA83FEB4FBF9F309FB134424
:1003A8004EEA044403FB0CFCA44508D93C1903F1AC
:1003B800FF3E80F08280A4457FD9023B3C4443EA5B
:1003C8000040A4EB0C04A0FB02EC64457346E14634
:1003D80062D35FD05DB1B8EB030264EB090404FAA1
:1003E80006F622FA01F31E43CC40C5E90064002159
:1003F8004FE7B1FBF2FC010C41EA0E4180B240EA42
:1004080001423B4638463C46B846BE462026B1FB2C
:10041800F7F1A2EB080241EA0C4166E7014618E74A
:1004280010462CE7C6F120022EFA02F3B740B1407D
:1004380020FA02F24FEA174E0A43B3FBFEF8BCB2A9
:100448000EFB1833110C41EA034108FB04F9B040D4
:1004580089454FEA104380B23ED9791808F1FF3C2C
:1004680001D289451FD8A1EB0901B1FBFEF909FBAF
:1004780004F80EFB191192B242EA0142424529D210
:10048800BA1809F1FF31C4D24245C2D2A9F102011A
:100498003A44BEE7F0459DD2BEEB02036CEB070C75
:1004A8000138E14696E7A7EB09094944A8F1020C8F
:1004B800B1FBFEF909FB04F8DBE773467FE750461A
:1004C80066E70846FDE63B44023A33E7ACF1020C26
:1004D8003B441CE749469CE7A1EB0901C446B1FB34
:1004E800FEF909FB04F8C4E7704700BF80B584B083
:1004F80000AF00F0E1FA00F099F800F081F900F09F
:10050800FFF800F04FF9404BDBB2184602F000FC50
:10051800002002F0FDFB00220021002002F0E6FC92
:100528003A49002002F024FD01220121002002F0B6
:10053800DDFC3749002002F01BFD4FF47A7000F013
:100548002DFB002002F096FC324800F08FFB4FF0A4
:10055800FF31304800F08FFC2E4800F017FD78601E
:100568002C4800F055FC7B68B3F57A7F02D2012352
:10057800FB7310E07B68B3F5FA6F02D20223FB73BA
:1005880009E07B6840F6B732934202D80323FB7335
:1005980001E00423FB737B6840F2DB52934202D8EC
:1005A8001D4BBB6009E07B6840F6C312934202D83A
:1005B8001A4BBB6001E01A4BBB60002200210020EF
:1005C80002F094FC1749002002F0D2FCFB7B303388
:1005D800DBB23B7000237B703B461946002002F0DB
:1005E800C7FC01220121002002F080FC0E490020F6
:1005F80002F0BEFCB968002002F0BAFC4FF4FA70B1
:1006080000F0CCFAA0E700BF700000201C30000802
:100618002830000828000020303000083830000852
:100628003C300008443000084C30000880B594B0D5
:1006380000AF07F1200330220021184602F0B1FC78
:1006480007F10C0300221A605A609A60DA601A6196
:100658000023BB60284B1B6C274A43F0805313646C
:10066800254B1B6C03F08053BB60BB6800237B6089
:10067800224B1B68214A43F4804313601F4B1B68BD
:1006880003F480437B607B6801233B624FF4803333
:100698007B620223BB634FF48003FB6304233B6448
:1006A80064237B640223BB640423FB6407F12003F7
:1006B800184601F0B7FD0346002B01D000F0D6F82C
:1006C8000F23FB6002233B6100237B614FF4A0539F
:1006D800BB614FF48053FB6107F10C0303211846FB
:1006E80002F018F80346002B01D000F0BFF800BF55
:1006F8005037BD4680BD00BF003802400070004042
:1007080080B584B000AF3B4600221A605A609A60F8
:10071800DA60214B214A1A601F4B00225A601E4B97
:1007280000229A601C4B00221A611B4B00221A7689
:10073800194B002283F82020174B0022DA62164B4F
:10074800174A9A62144B0022DA60134B0122DA61CD
:10075800114B002283F830200F4B01225A610E48BA
:1007680000F040FA0346002B01D000F07FF8002388
:100778003B6001237B600723BB603B461946064864
:1007880000F012FC0346002B01D000F06FF800BF08
:100798001037BD4680BD00BF280000200020014062
:1007A8000100000F80B500AF124B134A1A60114BBD
:1007B800124A5A600F4B00229A600E4B0022DA60F0
:1007C8000C4B4FF480421A610A4B00225A61094BC4
:1007D80000229A61074B0022DA61064B00221A6256
:1007E800044801F081F80346002B01D000F03EF8E0
:1007F80000BF80BD7000002000540040A0860100AA
:1008080080B485B000AF0023FB60174B1B6B164A02
:1008180043F080031363144B1B6B03F08003FB60EE
:10082800FB680023BB60104B1B6B0F4A43F00103AE
:1008380013630D4B1B6B03F00103BB60BB68002304
:100848007B60094B1B6B084A43F002031363064B9A
:100858001B6B03F002037B607B6800BF1437BD4647
:100868005DF8047B704700BF0038024080B400AFD9
:1008780072B600BF00BFFDE780B483B000AF0023AD
:100888007B60104B5B6C0F4A43F4804353640D4B01
:100898005B6C03F480437B607B6800233B60094BFF
:1008A8001B6C084A43F080531364064B1B6C03F01F
:1008B80080533B603B6800BF0C37BD465DF8047B46
:1008C800704700BF0038024080B58AB000AF78603A
:1008D80007F1140300221A605A609A60DA601A61FC
:1008E8007B681B68174A934227D100233B61164B4C
:1008F8005B6C154A43F480735364134B5B6C03F4CD
:1009080080733B613B690023FB600F4B1B6B0E4AF6
:1009180043F0010313630C4B1B6B03F00103FB60F3
:10092800FB6801237B610323BB610023FB6107F1A3
:1009380014031946054800F03BFE00BF2837BD46A2
:1009480080BD00BF00200140003802400000024086
:1009580080B58AB000AF786007F1140300221A60EE
:100968005A609A60DA601A617B681B68194A934278
:100978002BD100233B61184B1B6B174A43F0020332
:100988001363154B1B6B03F002033B613B69C023E8
:100998007B611223BB610023FB6103233B620423B9
:1009A8007B6207F1140319460C4800F001FE00238E
:1009B800FB60094B1B6C084A43F400131364064B95
:1009C8001B6C03F40013FB60FB6800BF2837BD46AF
:1009D80080BD00BF005400400038024000040240BF
:1009E80080B400AF00BFFDE780B400AF00BFFDE7F3
:1009F80080B400AF00BFFDE780B400AF00BFFDE7E3
:100A080080B400AF00BFFDE780B400AF00BFBD46B3
:100A18005DF8047B704780B400AF00BFBD465DF849
:100A2800047B704780B400AF00BFBD465DF8047B0F
:100A3800704780B500AF00F091F800BF80BD00009E
:100A480080B400AF064BD3F88830054A43F47003EE
:100A5800C2F8883000BFBD465DF8047B704700BF10
:100A680000ED00E0DFF834D0FFF7EAFF0C480D494D
:100A78000D4A002302E0D458C4500433C4188C42F1
:100A8800F9D30A4A0A4C002301E013600432A24257
:100A9800FBD302F08FFAFFF729FD70470000022010
:100AA800000000200C0000209C3000080C000020F2
:100AB800CC000020FEE7000080B500AF0E4B1B689D
:100AC8000D4A43F4007313600B4B1B680A4A43F446
:100AD80080631360084B1B68074A43F480731360F4
:100AE800032000F031FD0F2000F008F8FFF7C4FEE6
:100AF8000023184680BD00BF003C024080B582B08C
:100B080000AF7860124B1A68124B1B7819464FF4E5
:100B18007A73B3FBF1F3B2FBF3F3184600F03BFD35
:100B28000346002B01D001230EE07B680F2B0AD867
:100B3800002279684FF0FF3000F011FD064A7B680B
:100B48001360002300E0012318460837BD4680BD26
:100B580000000020080000200400002080B400AF3E
:100B6800064B1B781A46064B1B681344044A13604D
:100B780000BFBD465DF8047B704700BF0800002039
:100B8800C400002080B400AF034B1B681846BD4664
:100B98005DF8047B704700BFC400002080B584B0B6
:100BA80000AF7860FFF7EEFFB8607B68FB60FB681A
:100BB800B3F1FF3F05D00A4B1B781A46FB68134474
:100BC800FB6000BFFFF7DEFF0246BB68D31AFA6876
:100BD8009A42F7D800BF00BF1037BD4680BD00BF9E
:100BE8000800002080B584B000AF78600023FB7354
:100BF8007B68002B01D1012333E07B681B6C002B41
:100C080009D17868FFF760FE7B6800225A647B6828
:100C1800002283F83C207B681B6C03F01003002B38
:100C280018D17B681B6C23F4885323F0020343F02C
:100C380002027B681A64786800F0D8FA7B680022A0
:100C48005A647B681B6C23F0030343F001027B6842
:100C58001A6401E00123FB737B68002283F83C20BF
:100C6800FB7B18461037BD4680BD000080B485B0B8
:100C780000AF78600023BB607B6893F83C30012BA1
:100C880001D10223B2E07B68012283F83C207B6813
:100C98001B689B6803F00103012B18D07B681B6855
:100CA8009A687B681B6842F001029A60524B1B6885
:100CB800524AA2FB03239A0C13465B001344BB6001
:100CC80002E0BB68013BBB60BB68002BF9D17B68C5
:100CD8001B689B6803F00103012B7AD17B681B6CAE
:100CE80023F4E06323F0010343F480727B681A6401
:100CF8007B681B685B6803F48063002B07D07B6804
:100D08001B6C23F4405343F480527B681A647B685D
:100D18001B6C03F48053B3F5805F06D17B685B6C72
:100D280023F006027B685A6402E07B6800225A645A
:100D38007B68002283F83C20314BFB607B681B6892
:100D48006FF022021A60FB685B6803F01F03002B38
:100D58002AD17B681B682B4A934215D07B681B6895
:100D6800294A934205D1264B5B6803F01F03002BE9
:100D78000AD07B681B68254A934236D1204B5B68B2
:100D880003F01003002B30D17B681B689B6803F0CD
:100D98004053002B29D17B681B689A687B681B68C5
:100DA80042F080429A6020E07B681B68154A9342B3
:100DB8001BD17B681B689B6803F04053002B14D140
:100DC8007B681B689A687B681B6842F080429A605F
:100DD8000BE07B681B6C43F010027B681A647B682D
:100DE8005B6C43F001027B685A6400231846143791
:100DF800BD465DF8047B70470000002083DE1B437E
:100E08000023014000200140002101400022014050
:100E180080B483B000AF78607B6893F83C30012BD6
:100E280001D1022321E07B68012283F83C207B6802
:100E38001B689A687B681B6822F001029A607B68CD
:100E48001B689B6803F00103002B09D17B681B6CAE
:100E580023F4885323F0010343F001027B681A64EA
:100E68007B68002283F83C20002318460C37BD46D7
:100E78005DF8047B704780B584B000AF7860396056
:100E88000023FB607B681B689B6803F48063B3F5F1
:100E9800806F13D17B681B689B6803F48073B3F57C
:100EA800807F0BD17B681B6C43F020027B681A643F
:100EB8007B68002283F83C20012363E0FFF762FE91
:100EC800F86021E03B68B3F1FF3F1DD03B68002B81
:100ED80007D0FFF757FE0246FB68D31A3A689A42D2
:100EE80012D27B681B681B6803F00203022B0BD02D
:100EF8007B681B6C43F004027B681A647B680022E1
:100F080083F83C2003233DE07B681B681B6803F0E3
:100F18000203022BD6D17B681B686FF012021A609D
:100F28007B681B6C43F400727B681A647B681B68DF
:100F38009B6803F04053002B23D17B681B7E002B5A
:100F48001FD17B681B68DB6A03F47003002B06D093
:100F58007B681B689B6803F48063002B11D17B6856
:100F68001B6C23F480727B681A647B681B6C03F427
:100F78008053002B05D17B681B6C43F001027B6812
:100F88001A64002318461037BD4680BD80B483B06C
:100F980000AF78607B681B68DB6C18460C37BD4671
:100FA8005DF8047B7047000080B485B000AF7860BE
:100FB80039600023BB607B6893F83C30012B01D17A
:100FC800022305E17B68012283F83C203B681B680B
:100FD800092B25D97B681B68D9683B681B689BB2BD
:100FE8001A4613465B0013441E3B072202FA03F31A
:100FF800DA437B681B680A40DA607B681B68D9683B
:101008003B689A683B681B689BB2184603465B00BE
:1010180003441E3B9A407B681B680A43DA6022E05F
:101028007B681B6819693B681B689BB21A461346A4
:101038005B001344072202FA03F3DA437B681B6858
:101048000A401A617B681B6819693B689A683B68A3
:101058001B689BB2184603465B0003449A407B68B2
:101068001B680A431A613B685B68062B24D87B68B7
:101078001B68596B3B685A6813469B001344053B31
:101088001F2202FA03F3DA437B681B680A405A639B
:101098007B681B68596B3B681B689BB218463B68AA
:1010A8005A6813469B001344053B00FA03F27B6819
:1010B8001B680A435A634CE03B685B680C2B24D8D6
:1010C8007B681B68196B3B685A6813469B0013447E
:1010D800233B1F2202FA03F3DA437B681B680A40AA
:1010E8001A637B681B68196B3B681B689BB21846C0
:1010F8003B685A6813469B001344233B00FA03F2EB
:101108007B681B680A431A6323E07B681B68D96AFB
:101118003B685A6813469B001344413B1F2202FA5E
:1011280003F3DA437B681B680A40DA627B681B6852
:10113800D96A3B681B689BB218463B685A681346D5
:101148009B001344413B00FA03F27B681B680A4387
:10115800DA62224BFB607B681B68214A934209D103
:101168003B681B68122B05D1FB685B6843F480025F
:10117800FB685A607B681B68194A934223D13B6815
:101188001B68102B03D03B681B68112B1BD1FB6815
:101198005B6843F40002FB685A603B681B68102BCD
:1011A80011D1104B1B68104AA2FB03239A0C13465B
:1011B8009B0013445B00BB6002E0BB68013BBB6063
:1011C800BB68002BF9D17B68002283F83C20002300
:1011D80018461437BD465DF8047B7047002301406C
:1011E800002001400000002083DE1B4380B485B04E
:1011F80000AF7860794BFB60FB685B6823F4403292
:10120800FB685A60FB685A687B685B681A43FB682E
:101218005A607B681B685A687B681B6822F4807276
:101228005A607B681B6859687B681B691A027B686F
:101238001B680A435A607B681B685A687B681B688E
:1012480022F040725A607B681B6859687B689A680C
:101258007B681B680A435A607B681B689A687B68CE
:101268001B6822F400629A607B681B6899687B6837
:10127800DA687B681B680A439A607B689B6A584AED
:10128800934222D07B681B689A687B681B6822F0AF
:1012980070629A607B681B6899687B689A6A7B6849
:1012A8001B680A439A607B681B689A687B681B689E
:1012B80022F040529A607B681B6899687B68DA6AFA
:1012C8007B681B680A439A600FE07B681B689A6812
:1012D8007B681B6822F070629A607B681B689A685A
:1012E8007B681B6822F040529A607B681B689A688A
:1012F8007B681B6822F002029A607B681B68996809
:101308007B681B7E5A007B681B680A439A607B686F
:1013180093F82030002B1BD07B681B685A687B68C9
:101328001B6842F400625A607B681B685A687B68D5
:101338001B6822F460425A607B681B6859687B68A6
:101348005B6A013B5A037B681B680A435A6007E0E3
:101358007B681B685A687B681B6822F400625A60C5
:101368007B681B68DA6A7B681B6822F47002DA62A1
:101378007B681B68D96A7B68DB69013B1A057B6857
:101388001B680A43DA627B681B689A687B681B687B
:1013980022F400729A607B681B6899687B6893F8EE
:1013A80030305A027B681B680A439A607B681B6866
:1013B8009A687B681B6822F480629A607B681B6865
:1013C80099687B685B699A027B681B680A439A6024
:1013D80000BF1437BD465DF8047B70470023014009
:1013E8000100000F80B485B000AF78607B6803F01F
:1013F8000703FB600C4BDB68BB60BA684FF6FF0362
:101408001340BB60FB681A02BB68134343F0BF6319
:1014180043F40033BB60044ABB68D36000BF143791
:10142800BD465DF8047B704700ED00E080B400AF76
:10143800044BDB681B0A03F007031846BD465DF83A
:10144800047B704700ED00E080B483B000AF034632
:101458003960FB7197F90730002B0ADB3B68DAB279
:101468000C4997F907301201D2B20B4483F80023D4
:101478000AE03B68DAB20849FB7903F00F03043B42
:101488001201D2B20B441A7600BF0C37BD465DF884
:10149800047B704700E100E000ED00E080B489B013
:1014A80000AFF860B9607A60FB6803F00703FB617E
:1014B800FB69C3F10703042B28BF0423BB61FB6945
:1014C8000433062B02D9FB69033B00E000237B6150
:1014D8004FF0FF32BB6902FA03F3DA43BB681A40E4
:1014E8007B699A404FF0FF317B6901FA03F3D943D6
:1014F8007B680B40134318462437BD465DF8047BD0
:101508007047000080B582B000AF78607B68013B0F
:10151800B3F1807F01D301230FE00A4A7B68013BC6
:1015280053600F214FF0FF30FFF78EFF054B00226D
:101538009A60044B07221A60002318460837BD46F4
:1015480080BD00BF10E000E080B582B000AF7860D9
:101558007868FFF747FF00BF0837BD4680BD80B5F4
:1015680086B000AF0346B9607A60FB7300237B61E5
:10157800FFF75CFF78617A68B9687869FFF78EFFD2
:10158800024697F90F3011461846FFF75DFF00BF76
:101598001837BD4680BD80B582B000AF78607868E6
:1015A800FFF7B0FF034618460837BD4680BD000068
:1015B80080B489B000AF7860396000237B61002374
:1015C8003B610023BB610023FB616BE10122FB69E6
:1015D80002FA03F37B613B681B687A6913403B613D
:1015E8003A697B699A4240F05A813B685B6803F02C
:1015F8000303012B05D03B685B6803F00303022B50
:1016080030D17B689B68BB61FB695B00032202FAEF
:1016180003F3DB43BA691340BB613B68DA68FB69D3
:101628005B0002FA03F3BA691343BB617B68BA69CA
:101638009A607B685B68BB610122FB6902FA03F36D
:10164800DB43BA691340BB613B685B681B0903F065
:101658000102FB6902FA03F3BA691343BB617B68B1
:10166800BA695A603B685B6803F00303032B17D021
:101678007B68DB68BB61FB695B00032202FA03F34A
:10168800DB43BA691340BB613B689A68FB695B003E
:1016980002FA03F3BA691343BB617B68BA69DA607B
:1016A8003B685B6803F00303022B23D1FB69DA086C
:1016B8007B68083253F82230BB61FB6903F00703EB
:1016C8009B000F2202FA03F3DB43BA691340BB61A4
:1016D8003B681A69FB6903F007039B0002FA03F3EE
:1016E800BA691343BB61FB69DA087B680832B969D8
:1016F80043F822107B681B68BB61FB695B0003220F
:1017080002FA03F3DB43BA691340BB613B685B68C9
:1017180003F00302FB695B0002FA03F3BA6913439F
:10172800BB617B68BA691A603B685B6803F4403345
:10173800002B00F0B4800023FB60604B5B6C5F4AB9
:1017480043F4804353645D4B5B6C03F48043FB605C
:10175800FB685B4AFB699B08023352F82330BB6184
:10176800FB6903F003039B000F2202FA03F3DB4338
:10177800BA691340BB617B68524A93422BD07B689D
:10178800514A934225D07B68504A93421FD07B68C8
:101798004F4A934219D07B684E4A934213D07B68D4
:1017A8004D4A93420DD07B684C4A934207D07B68E0
:1017B8004B4A934201D107230EE008230CE006238D
:1017C8000AE0052308E0042306E0032304E00223DB
:1017D80002E0012300E00023FA6902F0030292000C
:1017E8009340BA691343BB613549FB699B080233CF
:1017F800BA6941F823203B4B9B68BB613B69DB43DB
:10180800BA691340BB613B685B6803F48013002B23
:1018180003D0BA693B691343BB61324ABB69936021
:10182800304BDB68BB613B69DB43BA691340BB6182
:101838003B685B6803F40013002B03D0BA693B696B
:101848001343BB61274ABB69D360264B5B68BB6106
:101858003B69DB43BA691340BB613B685B6803F4CF
:101868000033002B03D0BA693B691343BB611D4A9F
:10187800BB6953601B4B1B68BB613B69DB43BA699F
:101888001340BB613B685B6803F48033002B03D0D3
:10189800BA693B691343BB61124ABB691360FB69B0
:1018A8000133FB61FB690F2B7FF690AE00BF00BFD1
:1018B8002437BD465DF8047B704700BF00380240FE
:1018C80000380140000002400004024000080240C5
:1018D800000C0240001002400014024000180240B0
:1018E800001C0240003C014080B584B000AF786025
:1018F8007B68002B01D101232BE17B6893F83D30F5
:10190800DBB2002B06D17B68002283F83C20786884
:10191800FFF71EF87B68242283F83D207B681B684C
:101928001A687B681B6822F001021A607B681B68D2
:101938001A687B681B6842F400421A607B681B685F
:101948001A687B681B6822F400421A6001F0DAF812
:10195800F8607B685B68814A934207D8FB68804AD5
:10196800934294BF01230023DBB206E0FB687D4A63
:10197800934294BF01230023DBB2002B01D0012343
:10198800E7E0FB68784AA2FB03239B0CBB607B68FB
:101998001B685B6823F03F017B681B68BA680A43D1
:1019A8005A607B681B681B6A23F03F017B685B6891
:1019B8006A4A934202D8BB68013309E0BB684FF416
:1019C800967202FB03F3694AA2FB03239B090133C6
:1019D8007A6812680B4313627B681B68DB6923F41F
:1019E8004F4222F0FF027B685B685C498B4219D842
:1019F800FB68591E7B685B685B00B1FBF3F3591CFD
:101A080040F6FC730B40002B0AD0FB68591E7B681C
:101A18005B685B00B1FBF3F30133C3F30B0351E0E5
:101A280004234FE07B689B68002B11D1FB68581E8C
:101A38007B6859680B465B000B44B0FBF3F301333A
:101A4800C3F30B03002B0CBF01230023DBB212E00E
:101A5800FB68581E7B6859680B469B000B4499002D
:101A68000B44B0FBF3F30133C3F30B03002B0CBFA0
:101A780001230023DBB2002B01D0012322E07B6885
:101A88009B68002B0ED1FB68581E7B6859680B4673
:101A98005B000B44B0FBF3F30133C3F30B0343F4D4
:101AA80000430FE0FB68581E7B6859680B469B0093
:101AB8000B4499000B44B0FBF3F30133C3F30B035E
:101AC80043F44043796809681343CB617B681B681A
:101AD8001B6823F0C0017B68DA697B681B6A1A43BC
:101AE8007B681B680A431A607B681B689B6823F441
:101AF800034323F0FF037A6811697A68D2681143B7
:101B08007A6812680B4393607B681B68DB6823F074
:101B1800FF017B685A697B689B691A437B681B686D
:101B28000A43DA607B681B681A687B681B6842F0A6
:101B380001021A607B6800221A647B68202283F8FD
:101B48003D207B6800221A637B68002283F83E20D0
:101B5800002318461037BD4680BD00BFA08601008F
:101B68007F841E00FF083D0083DE1B43D34D6210B7
:101B780080B588B002AFF8607A601A460B467B8160
:101B880013463B81FEF7FEFF7861FB6893F83D3012
:101B9800DBB2202B40F0E0807B69009319230122FF
:101BA8007049F86800F064F90346002B01D002235D
:101BB800D3E0FB6893F83C30012B01D10223CCE041
:101BC800FB68012283F83C20FB681B681B6803F054
:101BD8000103012B07D0FB681B681A68FB681B68A8
:101BE80042F001021A60FB681B681A68FB681B68F0
:101BF80022F400621A60FB68212283F83D20FB680A
:101C0800102283F83E20FB6800221A64FB687A6879
:101C18005A62FB683A895A85FB685B8D9AB2FB6801
:101C28001A85FB68504ADA6279897B693A6AF868EA
:101C380000F09CF80346002B01D001238DE000231F
:101C48003B61FB681B685B693B61FB681B689B69C0
:101C58003B613B6966E07A69396AF86800F022FA04
:101C68000346002B0DD0FB681B6C042B07D1FB68C7
:101C78001B681A68FB681B6842F400721A6001232B
:101C88006BE0FB685B6A1A78FB681B681A61FB6883
:101C98005B6A5A1CFB685A62FB685B8D9BB2013B0E
:101CA8009AB2FB685A85FB681B8D013B9AB2FB68A8
:101CB8001A85FB681B685B6903F00403042B1BD1BE
:101CC800FB681B8D002B17D0FB685B6A1A78FB68D2
:101CD8001B681A61FB685B6A5A1CFB685A62FB68DE
:101CE8005B8D9BB2013B9AB2FB685A85FB681B8DE2
:101CF800013B9AB2FB681A857A69396AF86800F07C
:101D080019FA0346002B0DD0FB681B6C042B07D176
:101D1800FB681B681A68FB681B6842F400721A604B
:101D280001231AE0FB681B8D002B94D1FB681B680C
:101D38001A68FB681B6842F400721A60FB6820226C
:101D480083F83D20FB68002283F83E20FB680022D0
:101D580083F83C20002300E0022318461837BD46CC
:101D680080BD00BF020010000000FFFF80B588B0F2
:101D780002AFF8607A603B600B467B81FB68DB6AE8
:101D88007B617B69082B06D07B69012B03D07B69BB
:101D980013F5803F08D1FB681B681A68FB681B684D
:101DA80042F480721A600BE0FB681B6B122B07D1A0
:101DB800FB681B681A68FB681B6842F480721A602B
:101DC8003B6800937B6800224FF00111F86800F02F
:101DD8004FF80346002B0DD0FB681B681B6803F403
:101DE8008073B3F5807F03D1FB684FF400721A64E7
:101DF800032335E0FB681B69B3F5804F08D17B8965
:101E0800DBB21A46FB681B6802F0FE021A611BE08F
:101E18007B89DB11DBB203F00603DBB263F00F034F
:101E2800DAB2FB681B681A613B687A680E49F86881
:101E380000F098F80346002B01D0012310E07B89BD
:101E4800DAB2FB681B681A613B687A680749F86868
:101E580000F088F80346002B01D0012300E000239E
:101E680018461837BD4680BD080001000200010071
:101E780080B584B000AFF860B9603B601346FB7171
:101E880048E03B68B3F1FF3F44D0FEF77BFE0246D3
:101E9800BB69D31A3A689A4202D33B68002B39D1FE
:101EA800BB681B0CDBB2012B0DD1FB681B685B699F
:101EB800DA43BB6813409BB2002B0CBF01230023FD
:101EC800DBB21A460CE0FB681B689B69DA43BB6807
:101ED80013409BB2002B0CBF01230023DBB21A4630
:101EE800FB799A4216D1FB6800221A63FB6820220C
:101EF80083F83D20FB68002283F83E20FB681B6CBA
:101F080043F02002FB681A64FB68002283F83C2037
:101F1800012323E0BB681B0CDBB2012B0DD1FB684E
:101F28001B685B69DA43BB6813409BB2002B0CBF8C
:101F380001230023DBB21A460CE0FB681B689B698F
:101F4800DA43BB6813409BB2002B0CBF012300236C
:101F5800DBB21A46FB799A4293D000231846103711
:101F6800BD4680BD80B584B000AFF860B9607A60C6
:101F78003B6071E0FB681B685B6903F48063B3F541
:101F8800806F23D1FB681B681A68FB681B6842F4E2
:101F980000721A60FB681B686FF480625A61FB6804
:101FA80000221A63FB68202283F83D20FB68002288
:101FB80083F83E20FB681B6C43F00402FB681A643C
:101FC800FB68002283F83C20012367E07B68B3F1BB
:101FD800FF3F41D0FEF7D6FD02463B68D31A7A6828
:101FE8009A4202D37B68002B36D1BB681B0CDBB24C
:101FF800012B0CD1FB681B685B69DA43BB68134093
:102008009BB2002B14BF01230023DBB20BE0FB685B
:102018001B689B69DA43BB6813409BB2002B14BF53
:1020280001230023DBB2002B16D0FB6800221A63C1
:10203800FB68202283F83D20FB68002283F83E20BD
:10204800FB681B6C43F02002FB681A64FB680022E3
:1020580083F83C20012321E0BB681B0CDBB2012B79
:102068000CD1FB681B685B69DA43BB6813409BB201
:10207800002B14BF01230023DBB20BE0FB681B68B5
:102088009B69DA43BB6813409BB2002B14BF012342
:102098000023DBB2002B7FF46DAF00231846103706
:1020A800BD4680BD80B584B000AFF860B9607A6085
:1020B80034E0F86800F086F80346002B01D00123CD
:1020C80034E0BB68B3F1FF3F28D0FEF75BFD024662
:1020D8007B68D31ABA689A4202D3BB68002B1DD119
:1020E800FB681B685B6903F08003802B16D0FB68D4
:1020F80000221A63FB68202283F83D20FB68002237
:1021080083F83E20FB681B6C43F02002FB681A64CE
:10211800FB68002283F83C20012307E0FB681B686A
:102128005B6903F08003802BC3D100231846103766
:10213800BD4680BD80B584B000AFF860B9607A60F4
:1021480034E0F86800F03EF80346002B01D0012384
:1021580034E0BB68B3F1FF3F28D0FEF713FD024619
:102168007B68D31ABA689A4202D3BB68002B1DD188
:10217800FB681B685B6903F00403042B16D0FB683B
:1021880000221A63FB68202283F83D20FB680022A6
:1021980083F83E20FB681B6C43F02002FB681A643E
:1021A800FB68002283F83C20012307E0FB681B68DA
:1021B8005B6903F00403042BC3D1002318461037CE
:1021C800BD4680BD80B483B000AF78607B681B6873
:1021D8005B6903F48063B3F5806F1BD17B681B6870
:1021E8006FF480625A617B6800221A637B68202240
:1021F80083F83D207B68002283F83E207B681B6CB7
:1022080043F004027B681A647B68002283F83C2050
:10221800012300E0002318460C37BD465DF8047B17
:102228007047000080B586B000AF78607B68002BEF
:1022380001D1012367E27B681B6803F00103002BCF
:1022480075D0884B9B6803F00C03042B0CD0854B8E
:102258009B6803F00C03082B12D1824B5B6803F4D4
:102268008003B3F5800F0BD17E4B1B6803F400335A
:10227800002B5BD07B685B68002B57D1012342E2BF
:102288007B685B68B3F5803F06D1764B1B68754A5F
:1022980043F4803313601DE07B685B68B3F5A02FBF
:1022A8000CD1704B1B686F4A43F4802313606D4B4D
:1022B8001B686C4A43F4803313600BE0694B1B685E
:1022C800684A23F480331360664B1B68654A23F41D
:1022D800802313607B685B68002B13D0FEF752FCE9
:1022E800386108E0FEF74EFC02463B69D31A642BBE
:1022F80001D9032307E25B4B1B6803F40033002B6F
:10230800F0D014E0FEF73EFC386108E0FEF73AFC36
:1023180002463B69D31A642B01D90323F3E1514BDD
:102328001B6803F40033002BF0D100E000BF7B688A
:102338001B6803F00203002B63D04A4B9B6803F031
:102348000C03002B0BD0474B9B6803F00C03082BA6
:102358001CD1444B5B6803F48003002B16D1414B1E
:102368001B6803F00203002B05D07B68DB68012B98
:1023780001D00123C7E13B4B1B6823F0F8027B68BF
:102388001B69DB00374913430B603AE07B68DB6865
:10239800002B20D0344B01221A60FEF7F3FB386182
:1023A80008E0FEF7EFFB02463B69D31A022B01D97E
:1023B8000323A8E12B4B1B6803F00203002BF0D08A
:1023C800284B1B6823F0F8027B681B69DB00254952
:1023D80013430B6015E0244B00221A60FEF7D2FB72
:1023E800386108E0FEF7CEFB02463B69D31A022BA0
:1023F80001D9032387E11B4B1B6803F00203002B61
:10240800F0D17B681B6803F00803002B36D07B688B
:102418005B69002B16D0154B01221A60FEF7B2FB40
:10242800386108E0FEF7AEFB02463B69D31A022B7F
:1024380001D9032367E10B4B5B6F03F00203002B09
:10244800F0D01BE0094B00221A60FEF79BFB3861B5
:102458000EE0FEF797FB02463B69D31A022B07D919
:10246800032350E10038024000004742800E4742F3
:10247800884B5B6F03F00203002BEAD17B681B6873
:1024880003F00403002B00F097800023FB75814BB9
:102498001B6C03F08053002B0FD10023BB607D4BD6
:1024A8001B6C7C4A43F0805313647A4B1B6C03F01B
:1024B8008053BB60BB680123FB75774B1B6803F433
:1024C8008073002B18D1744B1B68734A43F48073D4
:1024D8001360FEF757FB386108E0FEF753FB02462E
:1024E8003B69D31A022B01D903230CE16A4B1B6801
:1024F80003F48073002BF0D07B689B68012B06D116
:10250800644B1B6F634A43F0010313671CE07B684D
:102518009B68052B0CD15F4B1B6F5E4A43F004038D
:1025280013675C4B1B6F5B4A43F0010313670BE0B7
:10253800584B1B6F574A23F001031367554B1B6F0A
:10254800544A23F0040313677B689B68002B15D05B
:10255800FEF718FB38610AE0FEF714FB02463B69F8
:10256800D31A41F28832934201D90323CBE0494B75
:102578001B6F03F00203002BEED014E0FEF702FB02
:1025880038610AE0FEF7FEFA02463B69D31A41F2C7
:102598008832934201D90323B5E03E4B1B6F03F009
:1025A8000203002BEED1FB7D012B05D1394B1B6CAF
:1025B800384A23F0805313647B689B69002B00F032
:1025C800A180344B9B6803F00C03082B5CD07B681C
:1025D8009B69022B41D1314B00221A60FEF7D2FAD7
:1025E800386108E0FEF7CEFA02463B69D31A022B9F
:1025F80001D9032387E0274B1B6803F00073002BE6
:10260800F0D17B68DA697B681B6A1A437B685B6A6E
:102618009B011A437B689B6A5B08013B1B041A43B6
:102628007B68DB6A1B061B4913434B601B4B01226B
:102638001A60FEF7A7FA386108E0FEF7A3FA024627
:102648003B69D31A022B01D903235CE0114B1B68A9
:1026580003F00073002BF0D054E0104B00221A60F6
:10266800FEF790FA386108E0FEF78CFA02463B69FB
:10267800D31A022B01D9032345E0064B1B6803F04C
:102688000073002BF0D13DE07B689B69012B07D1DB
:10269800012338E0003802400070004060004742E3
:1026A8001B4B5B68FB607B689B69012B28D0FB6830
:1026B80003F480027B68DB699A4221D1FB6803F04E
:1026C8003F027B681B6A9A421AD1FA6847F6C073C0
:1026D80013407A68526A9201934211D1FB6803F45D
:1026E80040327B689B6A5B08013B1B049A4207D116
:1026F800FB6803F070627B68DB6A1B069A4201D0B4
:10270800012300E0002318461837BD4680BD00BFEE
:102718000038024080B584B000AF786039607B68CB
:10272800002B01D10123CCE0684B1B6803F00703A1
:102738003A689A420CD9654B3A68D2B21A70634B20
:102748001B6803F007033A689A4201D00123B8E0F6
:102758007B681B6803F00203002B20D07B681B6892
:1027680003F00403002B05D0594B9B68584A43F4E7
:10277800E05393607B681B6803F00803002B05D0C7
:10278800534B9B68524A43F460439360504B9B6899
:1027980023F0F0027B689B684D4913438B607B688C
:1027A8001B6803F00103002B44D07B685B68012B96
:1027B80007D1474B1B6803F40033002B19D10123C1
:1027C8007FE07B685B68022B03D07B685B68032B28
:1027D80007D13F4B1B6803F00073002B09D101237D
:1027E8006FE03B4B1B6803F00203002B01D1012370
:1027F80067E0374B9B6823F003027B685B683449CA
:1028080013438B60FEF7BEF9F8600AE0FEF7BAF9E9
:102818000246FB68D31A41F28832934201D9032356
:102828004FE02B4B9B6803F00C027B685B689B00B6
:102838009A42EBD1254B1B6803F007033A689A428A
:102848000CD2224B3A68D2B21A70204B1B6803F0A4
:1028580007033A689A4201D0012332E07B681B687B
:1028680003F00403002B08D0194B9B6823F4E052B3
:102878007B68DB68164913438B607B681B6803F031
:102888000803002B09D0124B9B6823F460427B6835
:102898001B69DB000E4913438B6000F021F80246E8
:1028A8000B4B9B681B0903F00F030A49CB5C22FA08
:1028B80003F3094A1360094B1B681846FEF71EF913
:1028C800002318461037BD4680BD00BF003C0240BB
:1028D8000038024068300008000000200400002092
:1028E8002DE9B04F94B000AF00237B640023FB6454
:1028F80000233B640023BB64794B9B6803F00C0303
:10290800082B0DD0082B00F2E180002B02D0042BFD
:1029180003D0DBE0734BBB64DBE0734BBB64D8E0F4
:102928006F4B5B6803F03F037B646D4B5B6803F49C
:102938008003002B63D06A4B5B689B090022BB6352
:10294800FA63BB6BC3F308033B6300237B63D7E9DC
:102958000C4522462B464FF000004FF0000159016C
:1029680041EAD261500102460B462146511A3961AB
:10297800294663EB01037B614FF000024FF000032F
:10298800D7E904AB59468B01514643EA9163514656
:102998008A015146B2EB0108594663EB01094FF031
:1029A80000024FF000034FEAC90343EA58734FEAA5
:1029B800C80290469946234618EB0303BB602B4692
:1029C80049EB0303FB604FF000024FF00003D7E927
:1029D800024529464B02214643EAD15321464A0281
:1029E800104619467B6C0022BB62FA62D7E90A23BB
:1029F800FDF7E6FB02460B461346FB6458E0384BEE
:102A08005B689B09002218461146C0F308033B6225
:102A180000237B62D7E9088942464B464FF0000005
:102A28004FF00001590141EAD261500102460B46BC
:102A38004146B2EB010A494663EB010B4FF0000235
:102A48004FF000034FEA8B1343EA9A634FEA8A1266
:102A5800B2EB0A0463EB0B054FF000024FF00003E2
:102A6800EB0043EA5473E20014461D464346E3185C
:102A78003B604B4645EB03037B604FF000024FF091
:102A88000003D7E9004529468B02214643EA9153C2
:102A980021468A02104619467B6C0022BB61FA6106
:102AA800D7E90623FDF78CFB02460B461346FB6469
:102AB8000B4B5B681B0C03F0030301335B003B64A7
:102AC800FA6C3B6CB2FBF3F3BB6402E0054BBB64EE
:102AD80000BFBB6C18465037BD46BDE8B08F00BF7D
:102AE800003802400024F40000127A0080B400AFDD
:102AF800034B1B681846BD465DF8047B704700BF52
:102B08000000002080B500AFFFF7F0FF0246054B3C
:102B18009B689B0A03F007030349CB5C22FA03F383
:102B2800184680BD003802407830000880B586B06D
:102B380002AF03460A46FB711346BB71FB79134A81
:102B48005B0013445A78BB791343DBB2FB73FA7901
:102B58000F4913465B0013449B000B440433186869
:102B6800FA790B4913465B0013449B000B44083366
:102B78001B785B0099B207F10F02642300930123CD
:102B8800FEF7F6FF00BF1037BD4680BDC800002025
:102B98008030000880B586B000AF03460A46FB7156
:102BA8001346BB71BB7943F00403DAB2FB791146D3
:102BB8001846FFF7BBFF224B9B687B61214B1B68C4
:102BC800214AA2FB03239B0C5A001E4B1B681E497B
:102BD800A1FB03139B0C5B08D31A3B61184B9B6842
:102BE8007A69D31A3A699A42F8D8BB7923F0040370
:102BF800DAB2FB7911461846FFF798FF104B9B682D
:102C0800FB60104B1B68104AA2FB03239B0C32226B
:102C180003FB02F20B4B1B680B49A1FB03139B0C34
:102C28005B08D31ABB60064B9B68FA68D31ABA686C
:102C38009A42F8D800BF00BF1837BD4680BD00BF14
:102C480010E000E00000002083DE1B4380B582B066
:102C580000AF03460A46FB711346BB71BA79FB798C
:102C680011461846FFF762FFBA79FB7911461846F4
:102C7800FFF790FF00BF0837BD4680BD80B584B020
:102C880000AF0346FB710B46BB7113467B71BB79E2
:102C980023F00F03FB73BB791B01BB73FA7B7B79B2
:102CA8001343DAB2FB7911461846FFF7CFFFBA7B18
:102CB8007B791343DAB2FB7911461846FFF7C6FF52
:102CC80000BF1037BD4680BD80B582B000AF034657
:102CD8000A46FB711346BB71B979FB790022184685
:102CE800FFF7CCFF00BF0837BD4680BD80B582B076
:102CF80000AF03460A46FB711346BB71B979FB79ED
:102D080001221846FFF7BAFF00BF0837BD4680BD4D
:102D180080B58AB000AF0346FB7100BFFDF732FFF4
:102D28000346312BFAD9FB7930211846FFF7CCFF3F
:102D380000237B621FE04B4B9B68FB604A4B1B6880
:102D48004A4AA2FB03239B0C4FF47A7203FB02F25C
:102D5800454B1B684549A1FB03139B0C5B08D31A21
:102D6800BB60404B9B68FA68D31ABA689A42F8D895
:102D78007B6A01337B627B6A042BDCD9FB793021C7
:102D88001846FFF7A1FF00233B621FE0354B9B6805
:102D98007B61354B1B68354AA2FB03239B0C4FF420
:102DA8007A7203FB02F2304B1B683049A1FB031314
:102DB8009B0C5B08D31A3B612A4B9B687A69D31A30
:102DC8003A699A42F8D83B6A01333B623B6A042B62
:102DD800DCD9FB7930211846FFF776FF214B9B6839
:102DE800FB61214B1B68214AA2FB03239B0C962203
:102DF80003FB02F21C4B1B681C49A1FB03139B0C31
:102E08005B08D31ABB61174B9B68FA69D31ABA6976
:102E18009A42F8D8FB7902211846FFF755FFFB794B
:102E280028211846FFF750FFFB790C211846FFF7B9
:102E38004BFFFB7906211846FFF746FFFB790C4A42
:102E4800042102F81310FB79094A5B001344082295
:102E58005A70FB79184600F00DF800BF2837BD46B8
:102E680080BD00BF10E000E00000002083DE1B43AF
:102E7800C800002080B586B000AF0346FB71FB791F
:102E880001211846FFF720FF00237B611FE0144B48
:102E98009B683B61134B1B68134AA2FB03239B0CE3
:102EA8004FF47A7203FB02F20E4B1B680E49A1FB2A
:102EB80003139B0C5B08D31AFB60094B9B683A69A8
:102EC800D31AFA689A42F8D87B6901337B617B6927
:102ED800012BDCD900BF00BF1837BD4680BD00BF3D
:102EE80010E000E00000002083DE1B4390B587B0AF
:102EF80000AF0346FB710B46BB7113467B711A4B3F
:102F080007F108040FCB84E80F00FA791749134634
:102F18005B0013449B000B440A331B787A799A426E
:102F28000AD9FA79114913465B0013449B000B44F4
:102F38000A331B78013B7B717B799B0018333B4438
:102F480053F8103CDAB2BB791344DBB25BB263F0DE
:102F58007F035BB2DAB2FB7911461846FFF7B4FE7D
:102F680000BF1C37BD4690BD5830000880300008AF
:102F780080B582B000AF03463960FB7108E03B685A
:102F88005A1C3A601A78FB7911461846FFF7AEFECC
:102F98003B681B78002BF2D100BF00BF0837BD4645
:102FA80080BD02440346934200D1704703F8011BD9
:102FB800F9E7000070B50D4D0D4C641BA4100026F8
:102FC800A64209D10B4D0C4C00F018F8641BA41054
:102FD8000026A64205D170BD55F8043B9847013636
:102FE800EEE755F8043B98470136F2E794300008BD
:102FF800943000089430000898300008F8B500BFF5
:10300800F8BC08BC9E467047F8B500BFF8BC08BCC1
:043018009E46704719
:10301C00445558455553204C4142000050565420BD
:10302C004C544400476F6F64000000004261640020
:10303C005265746573740000476C6F76653A2000B6
:10304C005374617475733A20000000000000000096
:10305C0040000000140000005400000000000000BC
:10306C00000000000102030406070809000000002C
:10307C000102030400000000700000202710020071
:08308C006CD1FF7F0100000080
:04309400AD01000882
:0430980089010008A2
:0C309C000024F4001000000001000000FF
:0400000508000A6D78
:00000001FF
